:020000020000FC
:1000000020C0189518951895189510C01895189532
:0400100018950DC072
:10002C001895B29A15B11F3718F011E019BD189533
:10003C0014E019BD1895E0E6F0E000270193F030CC
:10004C00E9F7EF39D9F7EEE1FF27EA95F083E9F705
:10005C000FE90DBF10E0A12E1FEE17BB13E61FBD5D
:10006C0019E013BFA9BEA2BEA8BE18E016BF12E6C7
:10007C0017B91FEE16B9A3B810E114BB00000000AD
:0C008C0000000000000078940000FDCF90
:00000001FF
